:020000040001F9
:10400000B8300020AD410100BF410100C1410100B5
:1040100000000000000000000000000000000000A0
:10402000000000000000000000000000C34101008B
:104030000000000000000000C5410100C741010070
:10404000C9410100C9410100C1620100C94101002B
:10405000C941010000000000CD520100F5660100D9
:10406000C9410100C9410100995C0100C941010039
:10407000C9410100C9410100C9410100C941010014
:10408000C9410100AD4D0100C9410100C941010014
:10409000D54D0100C9410100DD4A0100C9410100BF
:1040A000C9410100C94101000000000000000000FA
:1040B0000000000000000000000000000000000000
:1040C0000348854602F04AFC00480047955301002A
:1040D000B8300020401E00BF00BF00BF00BF00BFBF
:1040E00000BF00BF00BF00BF00BF00BF00BFF1D1D5
:1040F00070470000401E00BF00BF00BF00BF00BFF0
:1041000000BF00BF00BF00BF00BF00BF00BFF1D1B4
:104110007047000010B500F01DF8002805D01F49B9
:104120001D484860C8131E4988611E48018CC9B2E9
:1041300001290ED1818C09070BD1018D0906090FC8
:10414000042906D1808D0006000F02D116490120F6
:10415000886010BD1348018CC9B2012917D1818C28
:10416000090714D1018D09060A0F03D1828D1206A9
:10417000120F0ED0090F012903D1828D1206120FE2
:1041800007D0032903D1808D0006000F01D0002045
:104190007047012070470000DFFF07C000050040A6
:1041A000006C0040C00F00F00006004007480268A5
:1041B0000F210A4302600648804706480047FEE791
:1041C000FEE7FEE7FEE7FEE7FEE70000240500400D
:1041D00015410100C140010070B500240546601C76
:1041E00090B00007000F08A9103008940870601CF8
:1041F0000007000F103048708878F9263040801C86
:1042000088701C2101A802F09EFB694608791021E4
:10421000084369460871029408A804940594079419
:104220000690287808A9887103206946888411209F
:104230000094087048708878F7213040801C08404E
:10424000EF210840012630436946887014210AA8EE
:1042500002F079FB09A80A9068460B9069460E8621
:1042600014204C8688862B4668880C330AAA01A93C
:10427000A2DF10B070BD00281ED000291CD00A8813
:10428000102A14D0112A14D0502A15D1CA88038AB2
:10429000891D9A4202D10B8B022B0ED083889A4241
:1042A0000AD18369002B07D00A8B1A3118478988F5
:1042B00001E00021C94381827047CA7E8B7E1102D2
:1042C0001943C907C90F00D001218175704730B566
:1042D0004B4B0D4604000FCB85B003936B4607C3D1
:1042E00024D0002D22D00020C043A0822868A061E5
:1042F0000020A0752146684662DF002814D121788D
:104300006846817401210182A21C04A90120A0DF5A
:10431000002809D129462046FFF75EFF002803D177
:104320002946204600F02BF805B030BD0E20FBE7F3
:1043300007B584B000280DD0828A324B9A420BD048
:10434000827D002A08D06A46128B142A06D90720DB
:1043500007B000BD0E20FBE70820F9E7002200921D
:1043600001920292039282896B461A80039106A9F8
:10437000029101219970808A6946A6DFE8E770B54D
:104380008EB005461C21684602F0DDFA69460878C1
:104390000C21084369460870002401940394049496
:1043A00005940694287808A9887002206946088434
:1043B000601C0007000F1030079408771120487721
:1043C000887FF9210840F721801C0840EF21084030
:1043D0000126304369468877142109A802F0B3FA10
:1043E00008A8099007A80A9069468E851420CC85F4
:1043F000088668882B1D09AAA2DF0EB070BD0000D8
:10440000A46B0100FFFF0000FFB583B0074600204A
:104410000C9C8646267805463AE07868A900411843
:104420000A88684682804988C1800022694601A8BE
:1044300064DF002810D1684601780598814226D1B2
:104440007046002801D0002200E00222207889185E
:1044500041181F2902D90C2007B0F0BD7146002970
:1044600008D1401CC0B2411C069B049A21701A540A
:1044700001208646217806980A18694601A864DF5B
:104480000028E9D1694620780978401820706D1C11
:104490003888A842C1DC7046002804D020780699EC
:1044A000801B401E88550020D6E7F8B51546069CAF
:1044B0001E46074602220094FFF7A6FF002806D1F9
:1044C00033461022294638460094FFF79DFFF8BD79
:1044D000F7B582B00026054616700078144600280D
:1044E00005D02846039900F0DFF806002DD1A87802
:1044F00000281BD02078039F001D1F2824D8684661
:1045000079DF002821D121780322481C20707A54B9
:1045100021781922481C20707A542078C1196846E5
:10452000008800F0BCF8217840182070A988002984
:1045300023D001208446AA680398002A07D0227855
:1045400053189B1C1F2B04D90C2005B0F0BD07206D
:10455000FBE71346521C2270491CC154227867465F
:10456000511C217087542378AA881818A96802F072
:10457000D1F92078297940182070E868002815D0F2
:104580000021415622788C46D01C03991F28DBD885
:10459000501C022320708B5422780A23501C207058
:1045A0008B5420786246431C23700A54288A0028C2
:1045B00009D028460094062202211030039BFFF701
:1045C00074FF0600C1D1288B002809D0284600942A
:1045D000072203211830039BFFF767FF0600B4D1C1
:1045E000288C2F462037002808D00094152214214B
:1045F0003846039BFFF759FF0600A6D1A86A00289A
:1046000005D02246039900F084F806009DD1E86A9F
:10461000002805D02246039900F0BAF8060094D18C
:10462000387D002806D022462846039900F0E2F89B
:1046300006008AD1304688E770B50D4692B0002159
:104640006A46117007241171002812D08188002950
:1046500005D08168002902D00978490702D4204694
:1046600012B070BD02A9FFF733FF0028F8D102AEE7
:1046700000E00026002D0BD0A8880028EFD101AA69
:104680000AA92846FFF724FF0028E9D10AAA00E07A
:104690000022684603790178304672DFE0E708704F
:1046A000000A487002207047F8B514780746A01C2D
:1046B00015460E461F2803D87878801C1F2801D97C
:1046C0000C20F8BD1D20001B80B26946864608807C
:1046D0003019801C7DDF0028F3D13878022805D1FD
:1046E00068460088704501D8092107E078780821DC
:1046F000002801D0704501D968460088421C325517
:10470000641CE2B2B1542978801C0818287000207B
:10471000F8BDF8B50D4611780646881D14461F28C9
:1047200001D90C20F8BD33880720062BFAD31927AE
:10473000FF01BB4202D94E4A9342F3D17288062A46
:10474000F0D3BA4202D94A4FBA42EBD1484FBB42EA
:1047500003D0BA4201D09342E4D8481C052220700D
:104760006A5420781222411C21702A542078411961
:104770003088FFF794FF21784018C0B220704119AB
:104780007088FFF78CFF2178401820700020F8BD5A
:1047900070B5054600790E46801C1446C0B21178EB
:1047A000821C8A181F2A01D90C2070BD0A46491C98
:1047B0002170401CB0542078FF22411C21703254DB
:1047C000207881192888FFF76AFF21784018C0B245
:1047D0002070AA88002A09D0A968002908D0801969
:1047E00002F098F82078297940182070002070BDD8
:1047F000072070BDF7B582B002981446006B0F46D3
:10480000002832D0029800252030009028E002983D
:10481000016B0C2068430E18217830794A1C2270F5
:10482000C01C785420781622411C21703A542078FC
:10483000C1193088FFF733FF21784018C0B22070CB
:10484000B288002A09D0B16800290ED0C01902F040
:1048500061F820783179401820706D1C0098EDB215
:10486000007DA842D3D800206FE607206DE6000047
:10487000FFFF000038B56549654A488890420FD06F
:104880004A78644C521CD2B24A70237B934208D3BC
:10489000083175DF002803D0A169002900D08847BE
:1048A00038BD00254D70217C002907D03B2176DFE3
:1048B000002803D0A169002900D088476169002938
:1048C000EED068460570884738BD70B5054601468C
:1048D0001C22504802F01EF84C4C00262670296815
:1048E000002907D00822A01802F014F8204608304A
:1048F0007ADF02E0454808307BDF002808D1401EFF
:10490000608042486670444A0021001D00F0DAFAD7
:1049100070BDF8B53D48103000F06BF800263B4DF7
:104920003C4C002807D0616900291BD001206A4651
:104930001070684615E02878002805D061690029C4
:1049400010D0684606700CE0687800280CD0A1688A
:104950000022686800F0FFFA002803D0A16900294E
:1049600000D088472E70F8BD6168F1E7F8B5294C92
:1049700002880027254DE689102A18D02946496863
:10498000112A21D0122A2DD0502A0FD1C288801D81
:10499000B2420BD1028B022A08D1C27E837E100262
:1049A0001843C007C00F13D0FFF7B3FFF8BD8188CD
:1049B00069800146154808220E31103001F0AAFF27
:1049C0006F70002EF0D0F8BD0020C04368806F707B
:1049D000084600F01FFB0028F5D0A1690029F2D09D
:1049E0008847F8BD811D09480822103001F092FF68
:1049F000DAE74188054808300288914204D34088AC
:104A0000814201D801207047002070470420002017
:104A1000FFFF0000D82000207548010010B50846AF
:104A2000114600F0AFFC10BDF8B5354C20780028D9
:104A300037D02069002807D00026E068002805D07C
:104A40000025002E04D013E00126F6E70125F8E743
:104A500068464EDF052806D0002806D029A2692125
:104A600000F088FC04E0012602E0216900988847F4
:104A7000002D12D1608869460880A06860DF052893
:104A800006D0002806D01FA2802100F073FC04E0AD
:104A9000012502E0E168A0688847002ED8D0002DEB
:104AA000CFD0F8BD70B5002901D08C0701D0072008
:104AB00070BD134C0125A16062801D49636010DF49
:104AC0000028F5D12570162023DF70BD002803D003
:104AD0000B49C860002070470E20704710B5084889
:104AE0004068002808D08047002804D0FF2105A294
:104AF000333100F03FFC10BDFFF796FF10BD000002
:104B00001C2000202E2E5C536F757263655C7364ED
:104B10005F636F6D6D6F6E5C736F667464657669ED
:104B200063655F68616E646C65722E6300000000EF
:104B30001D4A010031B5054C04E0401E009020469E
:104B4000FFF7C8FA00980028F7D138BDE703000046
:104B50001649C8611648C1690129FCD10021C1610B
:104B60007047F0B5134D01248E007619346000268D
:104B70009F007F193E600D4FF9607B610599002908
:104B80000AD0810049190C60910049190E603A6100
:104B9000B86006484030C462074878620420386034
:104BA00006488460046002488660F0BD002500402D
:104BB000002100400007005000E0D7010020004025
:104BC0008307FF22DB0E9A408907090E99400028CF
:104BD0000BDA0007000F08388308FB489B00181801
:104BE000C36993430B43C36170478308F7489B0035
:104BF0001B1818689043084318607047F0B5F44FCD
:104C000024217C6841430D1939694A1C09D02422AA
:104C10004A4316196B687268934204D8D21A7260BC
:104C200029623861F0BD0A4602E00A46396A9B1BD8
:104C30004E1C0BD024264E4337197E689E42F4D377
:104C400024264E4336197768FF1A77606B60296215
:104C500024214A4311190862F0BDF8B5DC4C2569DE
:104C6000681C36D0DB48002640686169401A07029C
:104C70003F0A1AE02420454360682A185068B84269
:104C800015D8A3693F1A8619156A002B0AD0D16975
:104C900090699847002808D0FF21CFA2583100F032
:104CA00069FB02E09169D0698847681CE2D1A1786C
:104CB000E078814206D1401CC0B2E070022801D1E8
:104CC0000020E070C2490006800D1C310E5000F03B
:104CD000DBF9F8BDF8B50446BD4801690091467896
:104CE00056E0BB48F100C2688D184BE0601C07D04D
:104CF000B74A242152686143204689180C6A20E093
:104D00002878182141436A68401CC0B252182870A4
:104D1000A978884201D100202870AD4B5068242129
:104D20005B684143C9181378012B2DD10B7D002BF3
:104D30002AD193688B60D368CB6013690B61526989
:104D4000CA61A34A8F685369BC46FA1A1202AB4F74
:104D5000120ABA4202D2CB68D21809E062469A1A05
:104D60001202CB68120A934201D99A1A00E000227B
:104D70004A6000228A60CA6001220A75921E0A6295
:104D8000FFF73CFF601CB1D1287869788842ADD12B
:104D90003046761EF6B20028A3D18D4801690098EE
:104DA000814201D00120F8BD0020F8BD94490020C7
:104DB000086048608860C860914940390860486070
:104DC000834903238A681B02521C8A609A4200D1DD
:104DD000886042E7F0B5002087B0C04302907C486D
:104DE00046690569684600F055F9074600F06FF915
:104DF0000446002F08D002AA3146009800F0AFF90F
:104E00000298FFF767FF06E00298FFF763FF0028AC
:104E100001D1002C02D0284600F0CAF907B0F0BD3D
:104E2000FFB59807002481B01E4615460F4600289E
:104E30000BD1002E09D000F016F965490A98886157
:104E40000F70324600204E6008E0072005B0F0BD2C
:104E500024234343D4549B181C75401CB842F7DBF1
:104E600024204743BB19032048700F461846CB60E7
:104E700019461830002218232E465E43D3005B18D3
:104E80001C705C709D7058603018521C032AF5DB52
:104E90000020C0433861BC70FC70012459482405CF
:104EA000046003211420FFF78BFE57480460494C2F
:104EB0000198A06003211120FFF782FE60687861ED
:104EC0000020C3E770B5424C6568002D06D0002A6B
:104ED00006D0002804D00023247809E0082070BD03
:104EE000072070BD24265E43AE5D002E04D05B1CFF
:104EF000A342F7DB042070BD242401265C432E5519
:104F000064196170A2610360002070BD2E49486879
:104F1000C005C00D19D0103840B2002807DA0207CA
:104F2000120F083A920892005118C96904E08108EA
:104F3000264A8900891809688007C00EC140080602
:104F4000800F012803D0032803D0022070470020DF
:104F5000704701207047FEB504461D481746426859
:104F60000D46002A0CD001788C4201D2052D01D2C9
:104F70000720FEBD214624235943535C012B01D059
:104F80000820FEBD8818407801283FD00026FFF792
:104F9000BDFFC0000E490190C9684018694600F085
:104FA0004AF9002834D0012101700A494460496857
:104FB0000830E2C006490198C96841180098487055
:104FC00000F062F80020FEBD00ED00E000E400E02B
:104FD00030200020001501402E2E5C536F75726347
:104FE000655C6170705F636F6D6D6F6E5C6170703A
:104FF0005F74696D65722E6300000000FFFF7F0023
:105000004011014080E200E000E100E02E46BEE7F2
:105010000420FEBDF8B5A74D04466868002809D0F5
:1050200029788C4201D30720F8BD24216143405CDC
:10503000012801D00820F8BDFFF768FFC600E86826
:105040006946301800F0F7F800280AD002210170F4
:105050004460E86831180098487000F015F80020A6
:10506000F8BD0420F8BD10B50121934A4804106032
:10507000924A40109060914A403A90609048416056
:105080002F20FFF737F810BD01208B490005803134
:105090000860704710B5874900238A78CC78A2420F
:1050A00012D0521CD2B28A70022A00D18B708A7838
:1050B000804B92001C339A58026048691018000215
:1050C000000A4861012010BD0360002010BDF8B542
:1050D000784801690091457833E07648E900C06876
:1050E0000E1834782AE0182060437168641C081890
:1050F000B178E4B2A14200D100240178022902D0A3
:1051000003291BD113E06B4A4068242152684143B4
:105110008F18397D002911D000F09FF800203875D4
:105120000CE024277843C0180275006A03E0614947
:1051300000224B680869471CF3D108617078A042CF
:10514000D1D128466D1EEDB20028C6D1594801695B
:105150000098814201D00120F8BD0020F8BDF7B5CC
:10516000544C0025676823691EE024215943C9195E
:105170004E68864202D9301A486017E0801B7519C4
:1051800000264E600E750E699C460B6AB646002ED0
:105190000AD0019E76193602360A8E607646CE60B7
:1051A00016680E6261461160591CDED12361FEBD96
:1051B000F8B540490A69531C3AD024235A434B6836
:1051C000D21856683F4A54684F69401CE11B0D02D3
:1051D0002D0A0121ED1C002810D1384A0804506026
:1051E000364A403A5060384A40001060324A803AAD
:1051F0001060334801602F20FEF77CFFB54200D2DB
:105200003546E81900022F49000A403108602D494F
:105210004968001B091B0902090A0002000AC91C8F
:10522000814204D901202449400480310860F8BD3E
:10523000FFF719FFF8BD42788378521C934200D1E2
:1052400000220378934201D1002070470A60416830
:105250004078182250430818704770B5154D2A69D8
:105260006B681446114606E0814207D00A462426A0
:105270007143C918096A4E1CF6D170BD002EFCD0CE
:105280008A4204D124204443E018006A2861242083
:105290004143C818242441686243006AD21810624E
:1052A000421CEAD024225043C01842685118416081
:1052B00070BD00003020002080E100E0401301407C
:1052C000001001400015014080E200E0F8B52548DB
:1052D0000069009024490020C863032504462D047A
:1052E0003AE0214614225143426880688B1801221B
:1052F000A24002422ED0D868C243009842401868AB
:105300000240002001268640324212D0DF68374238
:1053100003D101214904374301E02946B743DF6047
:10532000124E8700BE193768AF43376037680F43A6
:105330003760401C2028E5D30098996816468643BC
:105340003140009E58681640304002460A4301D062
:105350001A699047641CE4B2054841788C42C0D376
:10536000F8BD0000000500504061004000070050FB
:1053700054200020BFF34F8F44494348C860BFF317
:105380004F8FFEE7BFF34F8F40493F48C860BFF3E0
:105390004F8FFEE700F0E0FA00F0A8FF00F012FEE9
:1053A00000213BA2084600F0EEFD00F05EFD3CA0AF
:1053B00001F0E6FA01F0C6F83FA21021002000F04B
:1053C000E2FD00F052FD01221021022001F078F9E7
:1053D0003B490120087000F0FBFB3A4C00F086FED0
:1053E000207801284BD1384D296838A001F0C8FA3F
:1053F0003A4801683AA001F0C3FA3D4801683DA06F
:1054000001F0BEFA4148016841A001F0B9FA4748ED
:10541000016847A001F0B4FA4D4801684DA001F0C1
:10542000AFFA0821544801F08EFA2868C1B25248F8
:1054300000F080FF504A1021482000F0A4FD4FA248
:105440001021682000F09FFD00F00FFD4A48202148
:10545000C17062210171702141716D21817101461C
:1054600008224748FEF764FF082806D0002804D029
:10547000FF2144A28331FFF77DFF0020207001F05F
:1054800072F800F05FFAA9E70400FA0500ED00E009
:10549000536D6172742042616E642044656D6F00CB
:1054A0000A0D536D617274205761746368205465EE
:1054B0007374696E6721000042543A4449530000F6
:1054C0009C200020A1200020D420002042504D200C
:1054D00069732025642042504D0A0D00D020002021
:1054E000494249206973202564206D730A0D00002C
:1054F000BC2000205065616B204144432076616CE4
:105500007565206973202564200A0D00C0200020E5
:105510005468726F7567204144432076616C7565ED
:10552000206973202564200A0D000000C42000209B
:105530004865617274204144432054687265736801
:105540006F6C64206973202564200A0D2000000020
:10555000C820002048656172742041444320507582
:105560006C736520616D706C697475646520697316
:10557000202564200A0D00009420002062706D0038
:10558000902300202E2E5C757365725C6D61696ED0
:105590002E630000F8B500250F460446002975D09B
:1055A000FE4E00E1605D4F2871D06F2870D07328E7
:1055B0006FD1601984464078632824D16046807892
:1055C000682837D006DC4D2864D0592879D0642863
:1055D000EED145E06D2817D07328E9D16046C07838
:1055E0003038092855D8614609790A46303A092ADF
:1055F000F8D862465279652ADAD10A225043303807
:105600000818E74948707AE06046C07830380928C1
:10561000E8D8614609790A46303A092AE2D8624652
:105620005279652AC4D10A22504330380818DC491F
:10563000887064E06046C0783038092829D861460F
:1056400009790A46303A092A23D862465279652AEE
:105650001FD10A22504330380818D149C8704EE093
:105660006046C0783038092813D861460A79114657
:10567000303909290DD861464979652909D10A21AE
:10568000484330381118C648017138E08EE08EE08A
:1056900068E055E06046C0783038092850D8614647
:1056A00009790A46303A092A7CD862465279652A35
:1056B00078D10A22504330380918B94841711EE0A8
:1056C000FFE70020401C0428FCDB6046C079652809
:1056D00015D160468179C0787D22D20030385043A0
:1056E0000A186046007964214843614649790A23D3
:1056F00059434018AB4910184018A949C880604662
:1057000040786F284ED160468078642819D0692887
:1057100048D16046C078652844D1A3480178DF2984
:1057200003D20078A049203016E0FF2117E00021C5
:10573000812000F07FFB9C480021007800F07AFB7C
:1057400030E06046C07865282CD197480178202940
:1057500004D30078944920380870E8E70021924883
:105760000170E4E7601941786E2902D0662909D0FA
:1057700018E0162000F0A4F920783070607870707E
:1057800000200AE0807866280CD1162000F09DF9F0
:105790002078307060787070A078B0707F490120F8
:1057A000091F08706D1CBD4200DAFBE6F8BD6119E7
:1057B00048784E28DDD04628F4D188784628E4D0B1
:1057C000F0E770B50C461546114678A001F0D8F800
:1057D00029462046FFF7DEFE70BD10B50078002890
:1057E0000AD16E483B21001F408876DF002803D095
:1057F00073A2F621FFF7BEFD10BD10B5FF2170A208
:105800000231FFF7B7FD10BD00B585B01421684621
:1058100001F099F800206946087001900872402054
:105820000882B4204882684673DF002804D0FF2134
:1058300063A23031FFF79EFD122000F041F905B060
:1058400000BD70B50446554D00882D1F142843D067
:1058500010DC102820D0112828D013281BD12A466C
:105860000832002168887FDF002814D0FF2154A26D
:105870005D310EE0172829D0192846D052280AD1C8
:10588000002211466888A9DF002804D0FF214CA21D
:105890006231FFF76FFD70BD132000F011F9122087
:1058A00000F013F9A08868804BA208E0132000F0F4
:1058B0000CF90020C0436880FFF7A6FF48A2102122
:1058C000002000F060FB00F0D0FA70BD3222A11D74
:1058D000454801F01FF870BD4349E289C888891D19
:1058E000904208D10022688881DF0028F3D0FF2190
:1058F00033A26E31CDE700221146688881DF00288F
:10590000E9D0FF212EA27431C3E7A0790028E2D1AB
:10591000122000F0DAF835A21021002000F033FB4D
:1059200000F0A3FAFFF770FF70BD10B50446FFF753
:105930001DF82D4821468430FEF79DFC2046FFF7D8
:1059400080FF10BD10B53DDF002804D0FF211CA250
:10595000BC31FFF70FFD10BD10B5264988B00120FE
:105960000860091D08602349103108602149083189
:105970000860162000F0A9F8142000F0A6F8002412
:105980001D4B0522022120460094FFF749FA00280A
:1059900003D01AA25421FFF7EDFC3BE06C2000205D
:1059A0006C28002030EBFFFF80200020424C452077
:1059B0005278204C656E6774683A202564000000B8
:1059C0002E2E5C757365725C626C655F61707073BE
:1059D0005F756172742E630042543A434F4E00006B
:1059E00042543A44495300000C23002042543A5494
:1059F0006F75740048070050F42000202E2E5C754F
:105A00007365725C626C655F617070735F75617203
:105A1000742E6300604A01216048FFF753FA0028A2
:105A200003D05F4A5821FFF7A5FC002350225D49AF
:105A30001846FFF737F8002804D0FF21584AAD3147
:105A4000FFF798FC5848FFF741F8002804D0FF21E1
:105A5000534AB131FFF78EFC00F03CF853480090F8
:105A6000504869465030FEF732FC002803D04C4ABB
:105A7000D321FFF77FFC00F050F81C21684600F0AE
:105A800062FF0520400401908010029000940321E1
:105A900068460173C48104744548059045480690E2
:105AA0006846FEF712FF002804D0FF213C4A1A3155
:105AB000FFF760FC00F05FF8FFF7A6FE08B010BD2E
:105AC000012181403C4881607047012181403A4872
:105AD000C16070470EB51120694608720A2237A1CD
:105AE00002A87CDF002803D02D4A6D21FFF742FC7D
:105AF000002000901022694601900A803C224A80D2
:105B00008880FF209130C88068467ADF002803D063
:105B1000234A7721FFF72EFC0EBD10B59EB005215C
:105B200018A80175284800681C901E48503001785C
:105B300018A881743821684600F005FF02216846E4
:105B4000017000218170012484801DA802903821F9
:105B50000EA800F0F8FE10A804821CA815900EA94B
:105B60006846FEF769FD002803D00D4A9421FFF72F
:105B700001FC1EB010BD15491E2008808878012246
:105B80001043E1221040DF220C30104088700720C3
:105B9000C870102008717047036501009020002034
:105BA000FC590100402300202B590100C35701007C
:105BB000DB570100FB57010000050050424C455FD8
:105BC0004865616C74680000B46B010070200020AF
:105BD00010B53948002141600922026181603649CF
:105BE0001F204031086001203449000448603448D7
:105BF00001210160021533480260334B1868FF240D
:105C00002404A0430324A405204318602F48026005
:105C10002F48016010BD70B52E4C19212068490134
:105C2000401C00252060884206D92B482560416829
:105C30000122520551404160284E3078012802D19E
:105C400000F07BFD357026480078012801D100F076
:105C500065FD60687D21401CC900606088421AD9DA
:105C60006560204C2078401C207020781E4E3C2817
:105C700002D0307801280ED108221C491C48FEF7BA
:105C800057FB082805D0002803D01AA27521FFF77A
:105C900071FB2570357070BD0948C0380168002956
:105CA00009D006494968C90305D5002101600849A2
:105CB0000120C860AFE7704700A5004000A3004086
:105CC00000A2004080E200E008E400E000E100E023
:105CD00000A0004078200020000500509D200020FA
:105CE0009C20002076200020682000206C200020CE
:105CF000902300202E2E5C757365725C74696D654F
:105D0000722E6300F7B50527002601243F02002804
:105D10002ED04348414D046041482038046040483B
:105D2000183806603E48001F04603E481D2181600F
:105D30001521C160172101611C2000F06AF80121C2
:105D40000907E81941620199002906D0012924D0E8
:105D5000022924D0032924D00021029A002A00D04D
:105D600021434165FF2109314E5104602846FEBDA3
:105D70002B482D4D3C380460294844380460001DF0
:105D8000066027483838046028480E2181600C21BD
:105D9000C1600D2101610F20CFE70221DDE7042161
:105DA000DBE70621D9E7F8B594460A4600261E49E6
:105DB0009E463446884201D10F2500E01C25012172
:105DC0001B4FA940F96039154118FF30013019E027
:105DD00067463F5DCF6103273F0300E0761C836881
:105DE000002B01D1BE42F9D3BE4204D1284600F0B7
:105DF00010F80020F8BD002787608F6973461F5593
:105E0000641CA4B29442E3D3284600F002F80120B7
:105E1000F8BD012181400648816070470040004084
:105E2000740700500045004000300040003500403D
:105E30000005005010B5A74A1070002903D01920A2
:105E400000F043F903E00120A3494006C860A14BDC
:105E5000A24840339F4A01214068FFF7A4FF002871
:105E600002D0192000F031F910BD70B5994E002410
:105E700080362046B030C0B20021FFF7DBFF0021A2
:105E80000846FFF7D7FF00211020FFF7D3FF0025BA
:105E9000E8008019005D0121FFF7CCFF6D1CEDB219
:105EA000802DF5D3641CE4B2082CE2D370BD002130
:105EB000884B30B40A4680330020C400E418401CEC
:105EC000C0B262548028F8D3491CC9B20829F3D360
:105ED00030BCCAE710B57F2815D83F2913D8CB08A6
:105EE0000724E31A2140641A0121A140794CC00023
:105EF00080340019DBB2002AC25CC9B201D00A4367
:105F000000E08A43C25410BDFFB5203A81B0D0B240
:105F10001F460C4600250091039030E003980C2F9B
:105F200009D06F4900014018465D002084463006C4
:105F300005D50A9A07E00C2148436A49F3E70A9815
:105F4000002812D0002221460198FFF7C3FF7006F7
:105F5000060E641C0098E4B2201AB84207D10198DA
:105F6000009C401CC0B2019007E00122EBE76046B4
:105F7000401CC0B284460828D9D36D1CEDB2BD4286
:105F8000CCD305B0F0BDF8B516460D460446012742
:105F900014E07A2C02D900241035EDB2402D03D93B
:105FA00000242546FFF783FF009732781023294607
:105FB0002046FFF7A9FF0834E4B2761C30780028A9
:105FC000E7D1F8BD002210B511461046FFF79AFE42
:105FD000424C0028606077D0434901200860091DC9
:105FE0000860182000F071F801203B490006C860E5
:105FF0006420FEF79FFD182000F067F80021AE2016
:10600000FFF718FF0021D520FFF714FF00215020D3
:10601000FFF710FF0021A820FFF70CFF00213F2011
:10602000FFF708FF0021D320FFF704FF00210846F7
:10603000FFF700FF00214020FFF7FCFE00218D202C
:10604000FFF7F8FE00211420FFF7F4FE00212020C6
:10605000FFF7F0FE00210220FFF7ECFE0021A12057
:10606000FFF7E8FE0021C020FFF7E4FE0021DA2060
:10607000FFF7E0FE00211220FFF7DCFE0021812067
:10608000FFF7D8FE00212078FFF7D4FE0021D920A9
:10609000FFF7D0FE0021F120FFF7CCFE0021DB202E
:1060A000FFF7C8FE00213020FFF7C4FE0021A42026
:1060B000FFF7C0FE0021A620FFF7BCFE0021AF20A5
:1060C000FFF7B8FEFFF7F3FE10BD01218140024843
:1060D00081607047AC230020000500508020002024
:1060E0002C700100B86B010060070050F8B5C14D7D
:1060F00000242878002875D0FF20F530FEF71AFD1F
:10610000BD4E0027CBE0305D732829D1301984467D
:106110004078864663287CD160468078682836D0EF
:1061200006DC4D285FD0592875D06428EDD144E0B5
:106130006D2816D07328E8D16046C1783039092916
:106140000ED800790246303A092A09D862465279B7
:10615000652A05D10A22514330394018A7494870B1
:106160009CE06046C078303809280FD8614609792C
:106170000A46303A092A09D862465279652A05D179
:106180000A225043303809189C48817086E06046E6
:10619000C078303809280FD8614609790A46303A64
:1061A000092A7BD862465279652A77D10A22504360
:1061B000303808189149C87070E06046C1783039AD
:1061C00009296BD800790246303A092A66D8624616
:1061D0005279652A62D10A225143303940188749E1
:1061E00008715BE060E06046C0783038092855D817
:1061F000614609790A46303A092A4FD862465279EF
:10620000652A4BD10A225043303808187B4948711F
:1062100044E01EE0FFE70020401C0428FCDB604651
:10622000C079652815D160468179C0787D22D20079
:10623000303850430A18604600796421484361466B
:1062400049790A23594340186D49101840186B4981
:10625000C88070466F2821D160468078642819D0A4
:1062600069281BD16046C078652817D16548017838
:10627000DF2902D20178203101E06248FF2101705C
:1062800000218120FFF7D6FD5E4800210078FFF74E
:10629000D1FD03E06046C078652806D0641C2878EC
:1062A000844200DA2FE72F70F8BD56480178202984
:1062B00004D30078534920380870E1E70770DFE71E
:1062C00070B55148816800290FD000218160494C88
:1062D00020784E4E484D402801D3FFF707FFB169A3
:1062E00020782A18401C2070117070BD08B500205D
:1062F00000900B230A2209210820FEF732FC00201F
:106300004349C04388600420486042490860424ACB
:106310001168FF231B04994311604049086040A0A5
:1063200000F02EFB41A000F02BFB464946A000F0F8
:1063300027FB08BDF8B5064608460024642100F096
:10634000BFFA02460D4630326846027028460A21DE
:1063500000F0B6FA014630316846417028460A21FD
:1063600000F0AEFA684630318170015D3170641C16
:10637000E4B2761C032CF8D3F8BDFEB50E460546F4
:1063800000243249304600F09BFA0246303268461B
:1063900002707D270846FF00394600F091FA014659
:1063A0003031684641703946304600F089FA084677
:1063B000642100F085FA014630316846817064211D
:1063C000304600F07DFA08460A2100F079FA0146CD
:1063D00030316846C1700A21304600F071FA6846D3
:1063E00030310171015D2970641CE4B26D1C052C13
:1063F000F8D3FEBD882000202C2800206C28002027
:1064000030EBFFFF802000200021004000250040ED
:106410000023004080E200E000E400E000E100E052
:106420000A0D53746172743A200000000A0D46721E
:1064300069776D6172652056657273696F6E3A2077
:1064400000000000602000202573000010270000DD
:1064500010B5C0B2FEF77CFB012010BD10B50300E3
:1064600000F09EFA0D1F080A081F081F08081F08E1
:106470001F081F001F2010BD764CE088800705D143
:10648000E088642100F01CFA002908D1E088FF218F
:10649000913100F015FA002901D01C2010BD1D20FB
:1064A00010BD1E2010BD10B56A4C6079FFF7D6FFF5
:1064B0006178491CC9B261703C2921D30021617007
:1064C000A278521CD2B2A2703C2A19D3A170E278F1
:1064D000521CD2B2E270182A12D3E1702179491C01
:1064E000C9B2217181420BD3012020716179491C0D
:1064F000C9B261710C2903D36071E088401CE0804F
:1065000010BD10B5FFF7CFFF5248017802221143AA
:10651000017010BD4F483B21417081701421C17042
:106520000A210171052141713F214901C1800021EA
:1065300081600178FD221140017001780122114330
:106540000170704710B5FFF7E5FF434801210022B5
:10655000C9030068FEF7FFFC002803D03FA23821E2
:10656000FEF708FF10BDF8B53A4C2078800770D5CB
:106570002078FD210840207023796279E1883BA0D2
:1065800000F0FEF96378A278E1783DA000F0F8F918
:106590003E4E3FA0316800F0F3F900252E4F3560E4
:1065A0007D60BD60E188381DFFF7E7FE3E1D721C6F
:1065B00020210020FFF7E7FC20213FA20846FFF73B
:1065C000E2FC7D60BD6061793046FFF7B3FE721C6E
:1065D00020212820FFF7D7FC37A220213820FFF701
:1065E000D2FC7D60BD6021793046FFF7A3FE721CAE
:1065F00020214020FFF7C7FC7D60BD60E178304678
:10660000FFF798FE721C30210020FFF7BCFC2BA284
:1066100030211020FFF7B7FC7D60BD60A1783046C7
:10662000FFF788FE721C30211820FFF7ACFC23A274
:1066300030212820FFF7A7FC7D60BD6061783046DF
:10664000FFF778FE3021721C0846FFF79CFCFFF72D
:106650000CFCF8BD6C280020902000202E2E5C75CC
:106660007365725C7274632E630000000A0D4461EE
:106670007465203A25642F25642F256420000000CE
:1066800025643A25643A256400000000A820002013
:106690000A0D4144432048656172742053616D7056
:1066A0006C652072617465202564207065722073AA
:1066B00065636F6E640A0D002F0000003A00000051
:1066C0000B0203430820744903434B60734B0020C3
:1066D000186001200860002A0BD071494860714899
:1066E00001680902090A0207114301606E4980200E
:1066F0000860704710B5694803680021664A002B9E
:106700000AD0016093686948C38001234370C4685C
:10671000641CC46066484360116010BD63484178E2
:10672000002909D10078012806D15B4908605B4A3D
:10673000002111605E4908607047F8B55B4CE08845
:106740006081A069401CA061A069E169401A2063D2
:106750006089A16A88420EDA0521606B00F0C6F8F4
:1067600041004018216B884205D26089616A8842E5
:1067700001DA608960626089A16A884205DD60890A
:10678000216A884201DD60892062206B0127002593
:10679000FA2859D96089A16A884255DD20790028F4
:1067A00052D10521606B00F0A1F841004018216B27
:1067B000884249D22771A069E169401A6063A069E3
:1067C000E061E1783B48012907D1E5700021626B67
:1067D0008B00C250491C0F29F9DDA17801293BD05B
:1067E000258100218A0013185B688350491C0E29FB
:1067F000F8DD616BC163016821610168616100219D
:106800008A0083586669B34201DA8358636183580A
:106810002669B34201DD8358236182582389491CCC
:10682000D21822810F29EBDD216990B2401A6169EB
:10683000401A80B20E2100F043F8208101461E4824
:1068400000F03EF8A06367716089A16A884214DA9B
:106850002079012803D010E0A570E770F8BD2571FC
:10686000206A616A401AE062E06A616A401040187A
:10687000A062A06A2062A06A6062206B0F49884211
:10688000ECD91120A062022020626062A069E06160
:10689000A770E570F8BD0000007500400071004071
:1068A0000073004004E400E000E100E09C200020D0
:1068B000007000407828002060EA0000C409000051
:1068C00030B50B46014600202022012409E00D4688
:1068D000D5409D4205D31D469540491B2546954010
:1068E00040191546521E002DF1DC30BD70B5002454
:1068F0002546002801DA01244042002901DA012559
:106900004942FFF7DDFFAC4200D04042002C00D0EE
:10691000494270BD03460B439B0703D009E008C9F9
:10692000121F08C0042AFAD203E00B780370401C3F
:10693000491C521EF9D27047D2B201E00270401CCD
:10694000491EFBD270470022F6E710B513460A46EF
:1069500004461946FFF7F0FF204610BD064C0125FE
:10696000064E05E0E36807CC2B430C3C98471034F7
:10697000B442F7D3FDF7A8FB1C7601003C7601007A
:106980000FB410B503A9044B044A029800F024F890
:1069900010BC08BC04B01847516401008C200020D2
:1069A00030B47446641E2578641CAB4200D21D4688
:1069B000635D5B00E31830BC184702E008C8121F93
:1069C00008C1002AFAD170477047002001E001C1D8
:1069D000121F002AFBD17047FFB58DB00F46054648
:1069E000002606E025280AD0109A0F9990476D1CC2
:1069F000761C28780028F5D1304611B0F0BD00246F
:106A00000121674A009400E004436D1C2B7808467E
:106A1000203B98401042F7D128782E2815D1042029
:106A2000044368786D1C2A280AD101CF6D1C0090A0
:106A30000BE000990A225143303940186D1C009038
:106A40002878014630390929F3D92878692843D0B4
:106A500006DC0028D0D063280BD0642804D13BE0AA
:106A600073280FD075284CD0109A0F999047761C38
:106A700094E03878694608720020487202A80190B4
:106A8000012003E0386801900020C0433F1D6107EA
:106A90000CD5002400E0641C00998C420FDA84427B
:106AA000F9DB0199095D0029F5D108E0002400E037
:106AB000641C8442FCDB0199095D0029F8D1361978
:106AC00007E0019801990078491C0191109A0F99EB
:106AD0009047641EF5D261E00A20019001CF0028A2
:106AE00002DA40422D2102E0210504D52B216A461D
:106AF0001172012103E0E10701D02021F7E70C9199
:106B000004E00A20019001CF00210C910BA90B9108
:106B100008E00199FFF7D4FE0A460B993032491E6E
:106B20000B910A700028F4D10B9803A9081A2030A1
:106B30000190600701D5009801E0012000900199C3
:106B4000884203DD01460198081A00E00020002475
:106B5000009006E002A8109A005D0F999047641C0F
:106B6000761C0C988442F5DB04E0109A30200F99D3
:106B70009047761C0099481E00900029F5DC08E03B
:106B80000B980B990078491C0B91109A0F9990471C
:106B9000761C0199481E01900029F1DC6D1C28E744
:106BA000092801009ECADC240EE5A9E093F3A3B5F1
:106BB0000000406E01000000000000000000000026
:106BC00000000000000000003F4000000000000046
:106BD00000003000400030004000000009000BC001
:106BE0003D000BC03D00090018C024407FE022405A
:106BF00031800000180024C01B000D80324001804D
:106C000003801C4027401C800740004010006000AB
:106C100000000000000000000000000000001F80D5
:106C2000204040200000402020401F800000000045
:106C3000090006001F80060009000000040004008F
:106C40003F8004000400000000100060000000000D
:106C50000000000004000400040004000400000020
:106C6000000000400000000000000000002001C003
:106C700006003800400000001F80204020402040D7
:106C80001F800000000010403FC0004000000000D6
:106C900018C02140224024401840000010802040AD
:106CA000244024401B80000002000D0011003FC062
:106CB000014000003C802440244024402380000008
:106CC0001F80244024403440038000003000200016
:106CD00027C03800200000001B80244024402440AE
:106CE0001B8000001C0022C0224022401F800000A8
:106CF000000000000840000000000000000000004C
:106D00000460000000000000000004000A00110000
:106D10002080404009000900090009000900000026
:106D200000004040208011000A00040018002000EC
:106D300023402400180000001F80204027402940E5
:106D40001F400000004007C039000F0001C0004094
:106D500020403FC0244024401B8000001F80204072
:106D6000204020403080000020403FC02040204094
:106D70001F80000020403FC024402E4030C0000053
:106D800020403FC024402E00300000000F00108043
:106D9000204022403380020020403FC00400040015
:106DA0003FC02040204020403FC020402040000005
:106DB0000060202020203FC02000200020403FC055
:106DC00024400B0030C0204020403FC02040004005
:106DD000004000C03FC03C0003C03C003FC000007A
:106DE00020403FC00C4023003FC020001F802040B7
:106DF000204020401F80000020403FC0244024004D
:106E0000180000001F802140214020E01FA000004A
:106E100020403FC02440260019C0004018C0244034
:106E20002440224031800000300020403FC02040FC
:106E30003000000020003F80004000403F802000E4
:106E400020003E0001C0070038002000380007C0C5
:106E50003C0007C038000000204039C0060039C09F
:106E6000204000002000384007C0384020000000CB
:106E7000304021C02640384020C000000000000003
:106E80007FE0402040200000000070000C000380E4
:106E9000004000000000402040207FE00000000093
:106EA0000000200040002000000000000010001042
:106EB0000010001000100010000000004000000052
:106EC00000000000000002800540054003C00040B3
:106ED00020003FC004400440038000000000038005
:106EE00004400440064000000000038004402440A9
:106EF0003FC0004000000380054005400340000003
:106F0000000004401FC0244024402000000002E094
:106F1000055005500650042020403FC004400400A6
:106F200003C000400000044027C0004000000000F3
:106F300000100010041027E00000000020403FC0B7
:106F40000140070004C00440204020403FC00040F2
:106F50000040000007C0040007C0040003C0000098
:106F6000044007C00440040003C000400000038048
:106F70000440044003800000041007F00450044063
:106F800003800000000003800440045007F000105C
:106F9000044007C002400400040000000000064056
:106FA0000540054004C00000000004001F800440AC
:106FB00000400000040007800040044007C000407B
:106FC0000400070004C0018006000400060001C0A0
:106FD000070001C006000000044006C0010006C012
:106FE000044000000410071004E0018006000400C3
:106FF0000000044005C006400440000000000000FE
:1070000004007BE040200000000000000000FFF0D2
:1070100000000000000040207BE0040000000000B1
:1070200040008000400020002000400000000000E0
:107030000000000000000000000000000000000050
:1070400000001FCC000C0000000000000000080041
:10705000300060000800300060000000022003FCE7
:107060001E20022003FC1E200220000000000E183B
:1070700011043FFF10840C78000000000F00108402
:107080000F3800C0077818840078000000780F845B
:1070900010C411240E9800E4008400080800680061
:1070A0007000000000000000000000000000000070
:1070B000000007E018182004400200000000400211
:1070C0002004181807E00000000000000240024001
:1070D00001800FF00180024002400000008000802B
:1070E00000800FF800800080008000000001000D8B
:1070F000000E000000000000000000000000008002
:107100000080008000800080008000800000000C73
:10711000000C00000000000000000000000000065D
:10712000001800600180060018002000000007F031
:10713000080810041004080807F000000000080404
:1071400008041FFC000400040000000000000E0CF6
:1071500010141024104411840E0C000000000C18B0
:1071600010041104110412880C700000000000E0EB
:107170000320042408241FFC0024000000001F98A2
:10718000108411041104108810700000000007F032
:1071900008881104110418880070000000001C0009
:1071A000100010FC13001C001000000000000E383E
:1071B00011441084108411440E38000000000700B0
:1071C000088C10441044088807F0000000000000FC
:1071D0000000030C030C0000000000000000000091
:1071E0000001010600000000000000000000008017
:1071F00001400220041008081004000002200220B0
:1072000002200220022002200220000000001004C0
:1072100008080410022001400080000000000E0059
:107220001200100C106C10800F00000003E00C180E
:1072300013E4142417C4082807D000000004003CFD
:1072400003C41C40074000E4001C000410041FFCA1
:107250001104110411040E880070000003E00C18E2
:1072600010041004100410081C10000010041FFC6F
:10727000100410041004080807F0000010041FFC9C
:107280001104110417C410040818000010041FFC96
:107290001104110017C010000800000003E00C18D2
:1072A0001004100410441C780040000010041FFC5F
:1072B00010840080008010841FFC10040000100463
:1072C00010041FFC10041004000000000003000163
:1072D000100110011FFE10001000000010041FFC20
:1072E000110403801464181C1004000010041FFC17
:1072F0001004000400040004000C000010041FFC33
:107300001F0000FC1F001FFC1004000010041FFCE5
:107310000C04030000E010181FFC100007F0080820
:10732000100410041004080807F0000010041FFCEB
:1073300010841080108010800F00000007F00818E3
:1073400010241024101C080A07F2000010041FFC6F
:107350001104110011C011300E0C000400000E1CAD
:1073600011041084108410441C3800001800100010
:1073700010041FFC100410001800000010001FF87B
:1073800010040004000410041FF8100010001E0078
:1073900011E0001C007013801C0010001FC0103C86
:1073A00000E01F0000E0103C1FC000001004180C9B
:1073B000163401C001C01634180C100410001C0053
:1073C000130400FC13041C00100000000804101C2F
:1073D0001064108413041C04101800000000000046
:1073E00000007FFE4002400240020000000030002A
:1073F0000C0003800060001C00030000000040023D
:10740000400240027FFE000000000000000000007B
:10741000200040004000400020000000000100016A
:107420000001000100010001000100010000400016
:107430004000200000000000000000000000009854
:10744000012401440144014400FC000410001FFC1D
:107450000088010401040088007000000000007032
:10746000008801040104010400880000000000708D
:1074700000880104010411081FFC0004000000F84A
:10748000014401440144014400C80000000001041B
:1074900001040FFC1104110411001800000000D6B3
:1074A00001290129012901C90106000010041FFC5E
:1074B000008401000100010400FC0004000001043C
:1074C000190419FC0004000400000000000000037F
:1074D00000010101190119FE0000000010041FFC49
:1074E0000024004001B4010C01040000000010045D
:1074F00010041FFC0004000400000000010401FC53
:107500000104010001FC0104010000FC010401FC74
:10751000008401000100010400FC0004000000F8E8
:10752000010401040104010400F80000010101FF4D
:107530000085010401040088007000000000007054
:10754000008801040104010501FF00010104010498
:1075500001FC00840104010001800000000000CC57
:1075600001240124012401240198000000000100ED
:10757000010007F80104010400000000010001F807
:10758000000400040004010801FC00040100018063
:107590000170000C001001600180010001F0010C7D
:1075A000003001C00030010C01F0010000000104B6
:1075B000018C00740170018C010400000101018143
:1075C0000171000E001801600180010000000184BB
:1075D000010C013401440184010C00000000000092
:1075E0000000000001003EFC4002400200000000DC
:1075F00000000000FFFF000000000000000040024B
:1076000040023EFC0100000000000000000060009D
:107610008000800040004000200020003C760100F7
:1076200000200020D8000000BA6901001477010092
:10763000D8200020E00F0000CA6901000024F400F7
:10764000000000000000000000000000000000003A
:10765000000000000000000000000000000000002A
:10766000000000000000000000000000000000001A
:10767000000000000000000000000000000000000A
:1076800000000000000000000000000000000000FA
:1076900000000000000000000000000056312E3104
:1076A0002E3000000000FFFF00000000000000007E
:1076B0000000000000000000000000006F0000005B
:1076C00000000000000000000000000000000000BA
:1076D00000000000000000000000010000000000A9
:1076E000000000000000000000000000000000009A
:1076F0000000000000000000020000000200000086
:1077000011000000640000000000000058020000AA
:047710000000000075
:04000005000140C1F5
:00000001FF
